S01400007261696C5F7475746F7269616C2E73333765
S3150000000000800020F938000025390000253900005D
S315000000102539000025390000253900002539000062
S315000000202539000025390000253900002539000052
S315000000302539000024390000253900002539000043
S315000000402539000025390000253900002539000032
S315000000502539000025390000A30C00002D0F0000F3
S315000000602539000025390000253900002539000012
S31500000070A10B000025390000253900008130000061
S3150000008025390000253900002539000025390000F2
S315000000902539000015030000253900002539000028
S315000000A025390000AD050000850500002539000052
S315000000B0253900002539000025390000317C000073
S315000000C0E17B0000DD7B00002D7300002D7C00002D
S315000000D0E57B0000057C0000E97B00008D7C0000CC
S315000000E07D640000C5640000757C000025390000B1
S315000000F02539000025390000253900002539000082
S315000001002539000025390000253900002539000071
S315000001102539000025390000253900002539000061
S315000001202539000025390000253900002539000051
S315000001302539000025390000253900002539000041
S3150000014010B5054C237833B9044B13B1044800E0CD
S3150000015000BF0123237010BD8002002000000000B4
S315000001604CC7000008B5034B1BB10349034800E028
S3150000017000BF08BD00000000840200204CC700003C
S31500000180154B002B08BF134B9D46A3F5803A002163
S315000001908B460F461348144A121A08F090F90F4B73
S315000001A0002B00D098470E4B002B00D0984700201C
S315000001B0002104000D000D48002802D00C4800E084
S315000001C000BF08F04DF92000290003F02FFA08F0CF
S315000001D033F900BF00000800008000200000000086
S315000001E00000000080020020EC1900200000000042
S315000001F00000000080B584B000AF78603960214B04
S315000002001B7883F00103DBB2002B01D01E4B34E0D8
S315000002107B68002B01D11D4B2FE001F0D9FDB860A2
S315000002200023FB6022E01A4AFB681B0113440C33CF
S315000002301B7883F00103DBB2002B14D0FA687B68CD
S315000002401A60134AFB681B0113440C3301221A700F
S315000002500F4AFB681B01134400221A60B86801F0BC
S31500000260C7FD002309E0FB680133FB60FB68072B31
S31500000270D9DDB86801F0BCFD064B18461037BD46FF
S3150000028080BD00BF9C020020028000F0018000F0CB
S31500000290A0020020048000F080B584B000AF194BA6
S315000002A01B687B6000233B7101F092FDB860164B22
S315000002B01B78002B04D0B86801F09AFD134B1CE0A4
S315000002C0114B01221A70B86801F092FD0023FB6001
S315000002D009E00F4AFB681B0113440C3300221A7015
S315000002E0FB680133FB60FB68072BF2DD0423FB711F
S315000002F03B1D184602F02CF9002318461037BD4660
S3150000030080BD00BF309400009C020020038000F0F6
S31500000310A002002080B586B000AF344B1B6DFB6099
S31500000320324B5B6DFA681340FB60FB68002B00DA0A
S31500000330FEE700237B6101233B614FE0FA683B69DE
S315000003401340002B44D0294B03F5015310333A696F
S315000003501A607B691B01264A1344BB60BB681B6895
S31500000360002B35D0BB689B685A1CBB689A60BB687B
S315000003701B68BA689168BA685268786998470346F4
S31500000380002B14BF01230023DBB283F00103DBB291
S31500000390FB71FB7903F00103FB71BB685B7B012BEF
S315000003A016D1FB79002B13D0124A7B695B011344EB
S315000003B003F1080213796FF3410313710D4A7B6948
S315000003C05B01134403F1180213796FF341031371B0
S315000003D07B6901337B613B695B003B617B69072B72
S315000003E0ACD900BF1837BD4680BD00BF0000044031
S315000003F0A00200202003002080B483B000AF034693
S31500000400FB7197F90730002B0BDBFB7903F01F021A
S31500000410074997F907305B09012000FA02F241F813
S31500000420232000BF0C37BD465DF8047B704700BF34
S3150000043000E100E080B483B000AF0346FB7197F99A
S315000004400730002B0CDBFB7903F01F02074997F9F5
S3150000045007305B09012000FA02F2603341F82320DD
S3150000046000BF0C37BD465DF8047B704700E100E035
S3150000047080B483B000AF7860054B03F5105320338A
S315000004807A681A6000BF0C37BD465DF8047B70477A
S3150000049000C0034080B483B000AF074BD3F82434C8
S315000004A07B60054BD3F820247B68134018460C3735
S315000004B0BD465DF8047B704700C0034080B485B03C
S315000004C000AF78607B68FB60FB6893FAA3F3BB60C0
S315000004D0BB68B3FA83F3DBB218461437BD465DF842
S315000004E0047B704780B500AF1920FFF7A3FF1920E2
S315000004F0FFF782FF1A20FFF79DFF1A20FFF77CFF08
S3150000050000BF80BD80B584B000AF03463960FB7183
S3150000051001F05EFCF860FB7905493A6841F8232052
S31500000520F86801F065FC00BF1037BD4680BD00BF0E
S315000005302004002080B584B000AF786019E07868A8
S31500000540FFF7BCFFF8600122FB6802FA03F3DB4306
S315000005501A467B6813407B60094AFB6852F82330D1
S31500000560BB60BB68002B04D0FB68DAB2BB681046E0
S3150000057098477B68002BE2D100BF1037BD4680BD8F
S315000005802004002080B582B000AFFFF783FF02464B
S3150000059045F2555313407B607868FFF769FF78682A
S315000005A0FFF7C8FF00BF0837BD4680BD80B582B0E3
S315000005B000AFFFF76FFF02464AF6AA2313407B609F
S315000005C07868FFF755FF7868FFF7B4FF00BF083774
S315000005D0BD4680BD80B58AB000AF0346FB71FB798E
S315000005E003F00103002B0ED0544B1B889BB2013342
S315000005F09AB2524B1A8000F05BF9514B1B68002BE4
S3150000060001D000F03DF9FB7903F00203002B00F066
S31500000610918000233B6200F018FAF861494B1B6891
S31500000620FA69D31A3B6201F0D3FB786260E03B6A59
S31500000630BB61434B1B687B61414B1B683B61414A75
S31500000640FB6913600FE07B691A793B691B799A4253
S3150000065001D93B697B613B695B69BA69D31ABB61A6
S315000006603B699B683B613B69002B04D03B695B6936
S31500000670BA699A42E7D2786A01F0BAFB7B695B698C
S315000006803A6AD31A3B627B6900225A6101F0A0FBE9
S315000006907862786900F0B6F8786A01F0A9FB7B69A0
S315000006A01B69002B0BD001F093FB78627B691B69F9
S315000006B01946786900F048F8786A01F099FB7B6979
S315000006C0DB68002B06D07B69DB687A691268114605
S315000006D07869984700F0B9F9F860FA68FB69D31AA7
S315000006E03A6A13443B62FB68FB6101F071FB786276
S315000006F0134B1B68002B05D0114B1B685B693A6ACC
S315000007009A4294D20E4B1B68002B0DD00C4B1B68E3
S3150000071059690B4B1B683A6A8A1A5A61094AFB697E
S31500000720136000F0ADF802E0022000F00BFA786AE0
S3150000073001F05EFB00BF2837BD4680BD6004002087
S31500000740640400206804002080B487B000AF78609D
S3150000075039603B687B617B687A695A61284B1B6804
S31500000760002B40D000233B61254B1B68FB600CE04F
S31500000770FB685B697A69D31A7B617B687A695A611F
S31500000780FB683B61FB689B68FB60FB68002B13D032
S31500000790FB685B697A699A42EAD2FB685B69002B5F
S315000007A0E6D0FB685B697A699A4205D17B681A795B
S315000007B0FB681B799A42DBD83B69002B03D03B6967
S315000007C07A689A6002E00E4A7B6813607B68FA6872
S315000007D09A60FB68002B0CD0FB685A697B69D21AB9
S315000007E0FB685A6105E0064A7B6813607B68002255
S315000007F09A6000BF1C37BD465DF8047B704700BF9A
S315000008006404002080B485B000AF78600023FB60EC
S315000008101A4B1B68BB6004E0BB68FB60BB689B6847
S31500000820BB60BB68002B03D0BA687B689A42F3D1E1
S31500000830BA687B689A4201D0022319E0FB68002B54
S3150000084004D07B689A68FB689A6003E07B689B68C3
S315000008500A4A13607B689B68002B08D07B689B68FC
S3150000086059697B685A697B689B680A445A61002308
S3150000087018461437BD465DF8047B704764040020B3
S3150000088080B582B000AF084B1B685A69074B1B68DE
S3150000089013447B60022000F035F9786800F0E4F834
S315000008A000BF0837BD4680BD6404002068040020F0
S315000008B080B582B000AF00F0C8F87860164B1B68B0
S315000008C0002B22D0154B1B687A68D31A3B60124B5B
S315000008D01B685B693A689A420BD80F4B1B685969CB
S315000008E00D4B1B683A688A1A5A610C4A7B6813607A
S315000008F00EE0094B1B685B697A68D31A074A1360D6
S31500000900054B1B6800225A6102E0044A7B681360AB
S3150000091000BF0837BD4680BD64040020680400207F
S3150000092080B483B000AF78604FF090417A68134688
S315000009305B0013449B000B4434331B6818460C378A
S31500000940BD465DF8047B704780B483B000AF786025
S3150000095039604FF090417A6813465B0013449B0060
S315000009600B4434333A681A6000BF0C37BD465DF855
S31500000970047B704780B582B000AF78607868FFF777
S31500000980CFFF034618460837BD4680BD80B582B006
S3150000099000AF7860396039687868FFF7D5FF00BF27
S315000009A00837BD4680BD80B400AF00BF4FF090430E
S315000009B09B6A03F00803002BF8D14FF090431B6AA3
S315000009C01846BD465DF8047B704780B483B000AF1F
S315000009D078604FF0904303F5005314337A681A6039
S315000009E000BF0C37BD465DF8047B704780B483B00A
S315000009F000AF78604FF090439A697B68DB434FF015
S31500000A00904113408B6100BF0C37BD465DF8047BF7
S31500000A10704780B483B000AF78604FF090439A6916
S31500000A204FF090417B6813438B6100BF0C37BD4686
S31500000A305DF8047B704780B400AF4FF090435B696C
S31500000A401846BD465DF8047B704780B500AFFFF7DA
S31500000A50AAFF0346184680BD80B500AF0120FFF708
S31500000A6089FF0346184680BD80B586B000AF786022
S31500000A70FFF7EBFF3861FFF7EFFFF8607B687B61FC
S31500000A80FFF7D9FF034603F04003002B0AD139696B
S31500000A90F86800F0B3F80346022B03D8FA683B69FE
S31500000AA09A4219D13969786900F0A8F80346012BF2
S31500000AB002D83B6902337B617B69B3F1FF3F2CBFF0
S31500000AC00122002252429B1A7B6179690120FFF7BD
S31500000AD05DFF022000F016F8094B1B78002B0AD0A8
S31500000AE04FF09043DB6B4FF0904243F00203D36329
S31500000AF0034B00221A7000BF1837BD4680BD00BFE9
S31500000B000000002080B584B000AF0346FB710023CF
S31500000B10FB60FB7903F00103002B03D0FB6843F075
S31500000B200103FB60FB7903F00203002B03D0FB6893
S31500000B3043F04003FB60F868FFF76BFF00BF103718
S31500000B40BD4680BD80B584B000AF0346FB7100236F
S31500000B50FB60FB7903F00103002B03D0FB6843F035
S31500000B600103FB60FB7903F00203002B0ED0FB6848
S31500000B7043F04003FB60094B01221A704FF090438B
S31500000B80DB6B4FF0904223F00303D363F868FFF763
S31500000B902DFF00BF1037BD4680BD00BF00000020FE
S31500000BA080B584B000AF0023FB7301F011F9B86083
S31500000BB0FFF741FF78607B6803F00103002B03D049
S31500000BC0FB7B43F00103FB737B6803F04003002BC0
S31500000BD003D0FB7B43F00203FB737B6803F05103F6
S31500000BE01846FFF7F2FEFB7B1846FFF7F3FCB868E2
S31500000BF001F0FEF800BF1037BD4680BD80B483B05B
S31500000C0000AF786039607A683B68D31A18460C37AB
S31500000C10BD465DF8047B704780B483B000AF786052
S31500000C204FF0402303F5015324337A681A6000BF5E
S31500000C300C37BD465DF8047B704780B483B000AFC7
S31500000C4078604FF0402303F5015328337A681A6021
S31500000C5000BF0C37BD465DF8047B704780B483B097
S31500000C6000AF78604FF0402303F5835308337A686A
S31500000C701A6000BF0C37BD465DF8047B704780B430
S31500000C8083B000AF4FF040239B6E7B604FF0402354
S31500000C905A6E7B68134018460C37BD465DF8047BD8
S31500000CA0704780B500AF00F003F800BF80BD0000BC
S31500000CB080B582B000AFFFF7E2FF78607B6803F093
S31500000CC08043002B1CD0214B1B681B68002B12D0C5
S31500000CD01E4B1B681B683B601C4B1B6808220021CF
S31500000CE0184607F0ECFB00F0E3F803461A463B68AB
S31500000CF00021104698474FF08040FFF78DFF1EE019
S31500000D007B68002B1BDA124B1B681B68002B12D06A
S31500000D100F4B1B681B683B600D4B1B6808220021AC
S31500000D20184607F0CCFB00F0C3F803461A463B68AA
S31500000D300121104698474FF00040FFF76DFF00F085
S31500000D4017F800BF0837BD4680BD00BFC0040020AD
S31500000D50BC04002080B483B000AF78607B68A3F247
S31500000D60111318460C37BD465DF8047B704700002A
S31500000D7080B582B000AF00237B6024E0484A7B68E0
S31500000D8052F83330002B1BD0464B1B681B68002BD8
S31500000D9006D17B68DB00424A1344424A13600FE0E7
S31500000DA03F4A7B68DB0013441A793E4B1B681B796C
S31500000DB09A4205D97B68DB00394A1344394A1360E5
S31500000DC07B6801337B607B68042BD7DD00237B6067
S31500000DD024E0354A7B6852F83330002B1BD0334B66
S31500000DE01B681B68002B06D17B68DB002E4A134468
S31500000DF02E4A13600FE02C4A7B68DB0013441A79F5
S31500000E002A4B1B681B799A4205D27B68DB00264A6F
S31500000E101344264A13607B6801337B607B68042B8E
S31500000E20D7DD204B1B681B68002B14D04FF04023E6
S31500000E309B6F23F0FF7323F480331A4A12681279EA
S31500000E40120411464FF040220B4393674FF00040C7
S31500000E50FFF704FF03E04FF00040FFF7EEFE134BF1
S31500000E601B681B68002B13D04FF040239B6F23F4A5
S31500000E70FF7323F001030D4A1268127911464FF0F1
S31500000E8040220B4393674FF08040FFF7E7FE03E0F5
S31500000E904FF08040FFF7D1FE00BF0837BD4680BD4A
S31500000EA06C040020BC04002094040020C004002030
S31500000EB080B582B000AF4FF04023D3F888309B084E
S31500000EC0C3F308037B604FF04023D3F888309B08B8
S31500000ED0C3F308033B607A683B689A42EBD17868B3
S31500000EE0FFF738FF03465BB218460837BD4680BD9C
S31500000EF080B483B000AF786039607B6803F5005337
S31500000F0014333A681A6000BF0C37BD465DF8047B9F
S31500000F10704780B483B000AF78607B685B69184621
S31500000F200C37BD465DF8047B7047000080B582B083
S31500000F3000AF0A48FFF7EDFF78607B6803F0100307
S31500000F40002B06D010210548FFF7D2FF044B0122E3
S31500000F501A7000BF0837BD4680BD00BF0080044040
S31500000F60C404002080B500AF01F08AFD0346184690
S31500000F7080BD80B487B000AFF860B9607A607B68E6
S31500000F80002B04D0FB6803F580537B6103E0FB680C
S31500000F9003F500537B610122BB689A407B691A60A6
S31500000FA000BF1C37BD465DF8047B704780B483B034
S31500000FB000AF786039607B681A683B6822FA03F3F1
S31500000FC003F0010318460C37BD465DF8047B7047F5
S31500000FD080B500AF00BF04210348FFF7E7FF0346D3
S31500000FE0002BF8D100BF80BD8440004080B500AF23
S31500000FF0FFF7EEFF4FF04023D3F884309B0903F050
S315000010000303DBB2184680BD80B584B000AF03464B
S315000010100A46FB8013467B710023FB60FB885B0955
S315000010209BB2002B11D0FB885B099BB2012B02D12E
S315000010300D4BFB6009E0FB885B099BB2022B02D1DA
S315000010400A4BFB6001E00A4BFB60FB8803F01F03C1
S31500001050BB607B791A46B968F868FFF78AFF00BF5C
S315000010601037BD4680BD00BF6480004068800040E8
S315000010706082004090B585B000AF0346FB80002338
S31500001080FB60FB883E2B00F0F2803E2B35DC2B2BE1
S3150000109000F0AA802B2B19DC232B00F09980232B40
S315000010A00DDC202B00F08380202B02DC002B7ED071
S315000010B0EBE0212B00F08C80222B78D0E5E0292B69
S315000010C000F3C080282B80F28380A6E0312B08DC59
S315000010D02F2B7DDA2D2B00F0C3802D2B00F384807F
S315000010E0B7E03C2B00F3CA803A2B71DA382B00F0BC
S315000010F0A280392B00F09880C7E0B3F5007F5BD063
S31500001100B3F5007F20DC522B00F08780522B0ADCDF
S315000011104D2B4CD04D2B02DC3F2B59D0B5E04F2B3D
S31500001120C0F2B38043E0802B3CD0802B04DC603BD4
S31500001130012B00F2AA803AE0B3F5807F00F08980A7
S31500001140B3F5C07F33D0A0E0B3F5A06F73D0B3F58D
S31500001150A06F13DCB3F5607F53D0B3F5607F06DC78
S31500001160B3F5207F34D0B3F5407F3DD08DE0B3F5A5
S31500001170806F52D0B3F5906F56D086E0B3F5D06F3E
S315000011806ED0B3F5D06F06DCB3F5B06F5AD0B3F5B9
S31500001190C06F5ED079E0B3F5E06F68D0B3F5F06F5D
S315000011A06CD072E001F044FC0346FB606EE001F097
S315000011B067FC0346FB6069E001F03AFC04464FF425
S315000011C0007000F013F90346B4FBF3F3FB605DE037
S315000011D001F056FC04464FF4207000F007F9034670
S315000011E0B4FBF3F3FB6051E001F04AFC04464FF414
S315000011F0207000F0FBF80346B4FBF3F35B08FB60DA
S3150000120044E001F015FC04464FF4607000F0EEF87F
S315000012100346B4FBF3F3FB6038E007F10C0300214F
S31500001220184600F0D7FB31E007F10C030021184601
S3150000123000F032F82AE007F10C030021184600F00E
S3150000124083F823E007F10C030021184600F0B8FCF0
S315000012501CE007F10C030021184600F0F5FB15E031
S3150000126007F10C030021184600F04AFD0EE007F1D5
S315000012700C030021184600F0FDFC07E007F10C0303
S315000012800021184600F01AFC00E000BFFB68184673
S315000012901437BD4690BD000080B584B000AF7860BD
S315000012A039600023FB60274BD3F8243103F0070392
S315000012B0013B052B32D801A252F823F0D5120000CB
S315000012C0ED1200000513000011130000E1120000EA
S315000012D0F912000001F008FCF8600523FB7220E01B
S315000012E001F002FCF8600623FB721AE001F0F0FB45
S315000012F0F8600323FB7214E001F0EAFBF8600423B4
S31500001300FB720EE001F004FCF8600223FB7208E0B9
S3150000131001F0F6FBF8600723FB7202E00023FB7284
S3150000132000BF7B68002B02D07B68FA681A603B68B6
S31500001330002B02D03B68FA7A1A7000BF1037BD4600
S3150000134080BD00BF0080004080B582B000AF7860ED
S315000013503960124BD3F8203203F00303012B02D07D
S31500001360022B05D009E03968786800F033FB11E0FC
S315000013703968786800F068FB0CE07B68002B02D0C7
S315000013807B6800221A603B68002B02D03B68002273
S315000013901A7000BF00BF0837BD4680BD0080004000
S315000013A080B400AF054B03F5835310334FF48032FE
S315000013B01A6000BFBD465DF8047B704700800040A0
S315000013C080B500AF8020FFF755FE0246054B9A42D6
S315000013D006D8054B03F5015330334FF480321A60BB
S315000013E000BF80BD005A62020080004080B485B014
S315000013F000AF0346FB800023FB60FB88B3F5007F4C
S315000014001ED0B3F5007F05DC002B0AD0B3F5C07FF4
S3150000141007D024E0B3F5207F1AD0B3F5607F07D05C
S315000014201DE0134B1B6F1B0B03F00F03FB6016E055
S315000014300F4BD3F880301B0903F00303FB600EE06B
S315000014400B4BD3F890301B0E03F01F03FB6006E036
S31500001450074B1B6F9B0A03F00103FB6000BFFB6891
S31500001460013318461437BD465DF8047B704700BF4C
S315000014700080004090B583B000AF03463960FB8022
S31500001480FB88B3F5007F55D0B3F5007F05DC002B54
S315000014900AD0B3F5C07F07D070E0B3F5207F5CD0EB
S315000014A0B3F5607F30D069E03B68012B0AD03B681A
S315000014B0022B07D03B68042B04D03B68082B01D0D5
S315000014C03B68102B00BF00F00FFC00F0AFFBFFF7EE
S315000014D067FF2C4B1B6F23F470423B68013B1B03D9
S315000014E0284913430B67FFF73DFD0446FFF77EFDD2
S315000014F00346C3F102031946204600F055FA00F0F0
S315000015009FFBFFF75DFF39E03B68012B04D03B688A
S31500001510022B01D03B68042B00BF1A4BD3F8803056
S3150000152023F030023B68013B1B0116491343C1F807
S31500001530803023E03B68002B02D03B68202B00BFA5
S31500001540104BD3F8903023F0F8523B68013B1B0652
S315000015500C491343C1F8903010E03B68012B01D0D1
S315000015603B68022B00BF074B1B6F23F480623B686E
S31500001570013B9B02034913430B6700BF00BF0C37B7
S31500001580BD4690BD0080004090B585B000AF0346D3
S315000015900A46FB8013467B710023FB600023FB7227
S315000015A0FB88B3F5807F00F0FC80B3F5807F21DCFB
S315000015B02D2B00F05F812D2B0DDC2A2B00F0BE8039
S315000015C02A2B04DC243B032B00F2E681CDE02C2BF6
S315000015D000F0E780E0E13D2B00F0FF803D2B03DCCF
S315000015E0382B00F0A181D7E13E2B00F0B981802B8A
S315000015F035D0D1E1B3F5C06F00F0D380B3F5C06F3D
S3150000160014DCB3F5906F00F00481B3F5906F04DC41
S31500001610B3F5806F00F0A980BEE1B3F5A06F00F0CE
S315000016208381B3F5B06F00F08980B5E1B3F5F06F53
S3150000163000F0D380B3F5F06F08DCB3F5D06F00F09F
S315000016401981B3F5E06F00F08B81A5E1B3F5006F6A
S3150000165000F0DF80B3F5086F00F036819CE17B79FE
S31500001660023B052B30D801A252F823F0C316000026
S315000016708B160000C916000085160000C91600006A
S31500001680BD1600000223FB601FE00323FB60B24B84
S3150000169003F5835304334FF400221A60AF4B9B6A61
S315000016A003F00203002B14BF01230023FB72AB4B94
S315000016B003F58153083301221A6006E00423FB6018
S315000016C003E00123FB6000E000BF0121022000F0DF
S315000016D023FC00F009FB00F0A9FAFFF761FE9E4B20
S315000016E01B6F23F007029C49FB6813430B67FFF748
S315000016F039FC0446FFF77AFC0346C3F10203194698
S31500001700204600F051F90121002000F0DBFB00F03B
S3150000171097FAFFF755FEFB7A83F00103DBB2002B45
S315000017200AD07B79032B00D007E08C4B03F50053DE
S31500001730283301221A6000E000BF2EE17B79022BDC
S3150000174005D00D2B00D005E00123FB6002E002234B
S31500001750FB6000BF804BD3F8803123F003027E4943
S31500001760FB681343C1F8803117E17B79032B07D05F
S31500001770052B02D0022B06D008E00123FB6005E012
S315000017800223FB6002E00323FB6000BF724BD3F829
S31500001790203123F003027049FB681343C1F820315E
S315000017A0FBE07B79092B04D00A2B08D0082B03D049
S315000017B008E00123FB6005E00223FB6002E003234F
S315000017C0FB6000BF644BD3F8403123F0030262494B
S315000017D0FB681343C1F84031DFE07B79092B04D065
S315000017E00A2B08D0082B03D008E00123FB6005E094
S315000017F00223FB6002E00323FB6000BF564BD3F8D5
S31500001800603123F003025449FB681343C1F8603189
S31500001810C3E07B79023B052B20D801A252F823F0C6
S31500001820451800003F18000057180000391800003E
S31500001830511800004B1800000123FB600FE0022343
S31500001840FB600CE00323FB6009E00423FB6006E079
S315000018500523FB6003E00623FB6000E000BF3E4B70
S31500001860D3F8243123F007023B49FB681343C1F840
S31500001870243192E07B79083B042B19D801A252F857
S3150000188023F000BF9F18000099180000A51800005B
S31500001890B1180000AB1800000123FB6009E0022329
S315000018A0FB6006E00323FB6003E00423FB6000E02B
S315000018B000BF294BD3F8003223F007022649FB6804
S315000018C01343C1F8003268E07B79013B072B1FD830
S315000018D001A252F823F000BF0B19000011190000F5
S315000018E0F918000011190000111900001119000063
S315000018F005190000FF1800000123FB6009E0022320
S31500001900FB6006E00323FB6003E00023FB6000E0CE
S3150000191000BF114BD3F8003123F003020E49FB68D8
S315000019201343C1F8003138E07B790D2B02D00E2B22
S3150000193003D005E00123FB6002E00223FB6000BF49
S31500001940054BD3F8203223F003020349FB68134307
S31500001950C1F8203221E000BF0080004000C00040F6
S315000019607B79092B04D00A2B08D0082B03D008E07A
S315000019700123FB6005E00223FB6002E00323FB601A
S3150000198000BF084BD3F8403223F003020549FB6839
S315000019901343C1F8403200E000BF00BF1437BD4614
S315000019A090BD00BF0080004080B582B000AF786077
S315000019B039603B68002B04DD0121786800F0B8F837
S315000019C003E00021786800F0B3F800BF0837BD4691
S315000019D080BD000080B584B000AF78603960002318
S315000019E0FB60184BD3F8203103F00303022B09D018
S315000019F0032B0DD0012B11D101F076F8F8600523E9
S31500001A00FB720EE001F064F8F8600323FB7208E055
S31500001A1001F07EF8F8600223FB7202E00023FB72FD
S31500001A2000BF7B68002B02D07B68FA681A603B68AF
S31500001A30002B02D03B68FA7A1A7000BF1037BD46F9
S31500001A4080BD00BF0080004080B584B000AF7860E4
S31500001A5039600023FB60184BD3F8403103F00303D1
S31500001A60022B09D0032B0DD0012B11D101F05AF80E
S31500001A70F8600923FB720EE001F066F8F8600823AF
S31500001A80FB7208E001F057F8F8600A23FB7202E0E7
S31500001A900023FB7200BF7B68002B02D07B68FA68CC
S31500001AA01A603B68002B02D03B68FA7A1A7000BFB6
S31500001AB01037BD4680BD00BF0080004080B584B0B1
S31500001AC000AF786039600023FB60184BD3F86031B3
S31500001AD003F00303022B09D0032B0DD0012B11D1E8
S31500001AE001F020F8F8600923FB720EE001F02CF8F3
S31500001AF0F8600823FB7208E001F01DF8F8600A237D
S31500001B00FB7202E00023FB7200BF7B68002B02D051
S31500001B107B68FA681A603B68002B02D03B68FA7A49
S31500001B201A7000BF1037BD4680BD00BF0080004060
S31500001B3080B584B000AF786039601E4B03F58353DF
S31500001B4008334FF400321A600020FFF74FFC0246BC
S31500001B507B6802FB03F37B60174BDB6903F480337E
S31500001B60B3F5803F0CBF01230023FB72124B41F6F5
S31500001B707132DA63104B9B6823F44013FB607B6879
S31500001B800E4A934207D93B68002B04DCFB6843F4FA
S31500001B908013FB6000E000BF074AFB689360FB7A96
S31500001BA0002B02D0044B0022DA6300BF1037BD467B
S31500001BB080BD00BF0080004000000340005A620262
S31500001BC080B584B000AF786039600023BB60164BE7
S31500001BD0D3F8803103F00303012B02D0022B09D086
S31500001BE00FE007F1080300211846FFF7F3FE0D2367
S31500001BF0FB7309E000F08CFF0346BB600223FB7316
S31500001C0002E00023FB7300BF7B68002B02D0BA689A
S31500001C107B681A603B68002B02D03B68FA7B1A701F
S31500001C2000BF1037BD4680BD0080004080B500AFC4
S31500001C3002214FF42070FFF71DFC00BF80BD00009D
S31500001C4080B582B000AF02237B604FF4C070FFF70F
S31500001C5011FA0246064B9A4201D801237B60796845
S31500001C604FF42070FFF706FC00BF0837BD4680BD65
S31500001C7080F0FA0280B584B000AF78603960002346
S31500001C80FB60184BD3F8403203F00303022B09D054
S31500001C90032B0DD0012B11D100F044FFF86009236E
S31500001CA0FB720EE000F050FFF8600823FB7208E0BC
S31500001CB000F041FFF8600A23FB7202E00023FB728A
S31500001CC000BF7B68002B02D07B68FA681A603B680D
S31500001CD0002B02D03B68FA7A1A7000BF1037BD4657
S31500001CE080BD00BF0080004080B500AF00F0E6FE7A
S31500001CF0034600211846FFF71BFF00BF80BD00000A
S31500001D0080B584B000AF786039600023FB60204B5B
S31500001D10D3F8003203F00703013B032B24D801A2BA
S31500001D2052F823F0351D0000411D00004D1D000036
S31500001D30591D000000F0F6FEF8600923FB7216E05C
S31500001D4000F002FFF8600823FB7210E000F0F3FEDB
S31500001D50F8600A23FB720AE000F092FE03469B0A33
S31500001D60FB600C23FB7202E00023FB7200BF7B6862
S31500001D70002B02D07B68FA681A603B68002B02D001
S31500001D803B68FA7A1A7000BF1037BD4680BD00BFA7
S31500001D900080004080B483B000AFEFF310833B6057
S31500001DA03B687B6072B67B6818460C37BD465DF8AB
S31500001DB0047B704780B483B000AF78607B68002BEB
S31500001DC000D162B600BF0C37BD465DF8047B704794
S31500001DD080B483B000AFEFF310833B603B687B6059
S31500001DE072B67B6818460C37BD465DF8047B7047B3
S31500001DF080B483B000AF78607B68002B00D162B6F8
S31500001E0000BF0C37BD465DF8047B704780B483B0D5
S31500001E1000AF786039607B681A683B6822FA03F382
S31500001E2003F0010318460C37BD465DF8047B704786
S31500001E3080B400AF034B044A1A6400BFBD465DF888
S31500001E40047B7047004009403254FFFF80B400AF66
S31500001E50044B4AF6CD321A6400BFBD465DF8047BDA
S31500001E60704700BF0040094080B500AF00BF0421A5
S31500001E700348FFF7CBFF0346002BF8D100BF80BD18
S31500001E808440004080B500AFFFF7EEFF4FF04023DF
S31500001E90D3F884309B0903F00303DBB2184680BDF8
S31500001EA080B483B000AF0346FB71FB79013B4FF46E
S31500001EB0806202FA03F318460C37BD465DF8047BD0
S31500001EC07047000080B584B000AF78600B46FB70A9
S31500001ED07B68002B03D100F0ABFDF86001E07B6866
S31500001EE0FB600B4B1B78002B09D0FB68094A934219
S31500001EF005D8FB781946012000F00EF804E0FB78BF
S31500001F001946022000F008F800BF1037BD4680BD14
S31500001F10C8040020005A620290B587B000AF03469D
S31500001F200A46FB711346BB71FFF7ACFF03461A4620
S31500001F30FB79934236D000F07BFD78617B693B618B
S31500001F40FB79012B03D101217869FFF72DFDFFF7FE
S31500001F5021FFF8604FF04024FB791846FFF7A0FFF9
S31500001F600346236703E04FF04023D3F884304FF055
S31500001F704023D3F8843003F01003002B07D04FF032
S31500001F804023D3F8843003F02003002BEBD0F8680D
S31500001F90FFF710FFFB79022B05D100217869FFF7C7
S31500001FA003FD00E000BF1C37BD4690BD80B584B080
S31500001FB000AF7860284B03F5835304334FF000429B
S31500001FC01A60264B03F58053043301221A60234B13
S31500001FD05B6C012B0CBF01230023FB73FFF736FF5D
S31500001FE07B685B785B004FF0402243F00103D363CC
S31500001FF01A4B9B6823F074027B689B781B01134382
S315000020007A68D278002A01D0042200E0002213491F
S3150000201013438B607B681B791B027A6892791146A1
S315000020200E4A0B4313617B685B791B027A68D2798F
S3150000203011460A4A0B4353617B681B78184600F029
S315000020400FF8FB7B002B01D0FFF7F2FE01231846A9
S315000020501037BD4680BD00BF0080004000400940EB
S3150000206080B584B000AF0346FB71284B03F583535C
S3150000207004334FF000421A60254B03F580530433B6
S3150000208001221A60224B5B6C012B0CBF012300233B
S31500002090FB73FFF7DBFEFB79002B13D11C4B03F51B
S315000020A00053083301221A6000BF194BDB6A03F0A4
S315000020B00103002BF9D0164B03F50053043301221C
S315000020C01A6019E000BF124BDB6A03F00803002B0D
S315000020D0F9D10F4B03F50053243320221A600C4B21
S315000020E003F58053083301221A6000BF084B5B6A70
S315000020F003F02003002BF9D0FB7B002B01D0FFF768
S3150000210097FE00BF1037BD4680BD00BF008000406F
S315000021100040094080B487B000AFF860B9607A60CB
S315000021207B68002B04D0FB6803F580537B6103E0DA
S31500002130FB6803F500537B610122BB689A407B690B
S315000021401A6000BF1C37BD465DF8047B704780B43B
S3150000215085B000AF786039607B6803F58053FB601B
S31500002160FB683A681A6000BF1437BD465DF8047B09
S31500002170704780B485B000AF786039607B6803F53E
S315000021800053FB60FB683A681A6000BF1437BD460F
S315000021905DF8047B704780B584B000AFF860B96025
S315000021A07A60B968F868FFF7E4FF7968F868FFF7BE
S315000021B0CEFF00BF1037BD4680BD000080B483B09F
S315000021C000AF7860054B03F5105320337A681A6028
S315000021D000BF0C37BD465DF8047B704700C0034066
S315000021E080B483B000AF03463960FB71FB79002BE6
S315000021F007D0FB79012B04D0FB79022B01D0FB79A8
S31500002200032B01223B6802FA03F30949FA791846BF
S3150000221013465B0013441B010B4403F500531033B4
S31500002220186000BF0C37BD465DF8047B704700BFE1
S3150000223000C0034080B483B000AF03463960FB7131
S31500002240FB79002B07D0FB79012B04D0FB79022BFD
S3150000225001D0FB79032B01223B6802FA03F30949FB
S31500002260FA79184613465B0013441B010B4403F529
S3150000227080531033186000BF0C37BD465DF8047BF1
S31500002280704700BF00C0034080B586B000AFB9609C
S315000022907A601A460346FB731346BB7300237B61C1
S315000022A0FB7B002B07D0FB7B012B04D0FB7B022B97
S315000022B001D0FB7B032B7B68072B0ED87B689B002A
S315000022C0032202FA03F1FA7B7B689B0002FA03F30E
S315000022D01A462348FFF75FFF10E07B68083B7B61E7
S315000022E07B699B00032202FA03F1FA7B7B699B0060
S315000022F002FA03F31A461B48FFF74DFF7B68072BCC
S315000023000FD87B689B00032202FA03F1BB6803F037
S3150000231003027B689B0002FA03F31A461248FFF792
S315000023203AFFBB7B1A4679681048FFF7F3FE97F829
S3150000233020301A4679680E48FFF7ECFE01227B68CA
S3150000234002FA03F31846FFF739FF97F824301A46C6
S3150000235079680848FFF7DEFE00BF1837BD4680BD26
S3150000236000C4034004C4034008C4034010C403402F
S3150000237014C4034024C4034080B584B000AFB960E0
S315000023807B600346FB731346BB73FB7B002B07D0B6
S31500002390FB7B012B04D0FB7B022B01D0FB7B032BA9
S315000023A0BB7B002B0DD07B68002B05D0FB7BB9686F
S315000023B01846FFF73FFF04E0FB7BB9681846FFF7B6
S315000023C00FFFBB68072B20D82D49FA7B13465B000D
S315000023D013441B010B4404331A68BB689B000F218E
S315000023E001FA03F3DB431340B97BBA68920001FAA2
S315000023F002F211462248FA7B194313465B00134446
S315000024001B0103440433196025E01D49FA7B13467A
S315000024105B0013441B010B440C331A68BB6803F1C1
S315000024208043083B9B000F2101FA03F3DB4302EADA
S315000024300301BA7BBB6803F18043083B9B0002FAA9
S3150000244003F30F48FA7B194313465B0013441B0141
S3150000245003440C331960BB7B002B0DD17B68002B2A
S3150000246005D0FB7BB9681846FFF7E4FE04E0FB7B6A
S31500002470B9681846FFF7B4FE00BF1037BD4680BDE9
S3150000248000C0034080B483B000AF0346FB7197F9E8
S315000024900730002B0BDBFB7903F01F02074997F986
S315000024A007305B09012000FA02F241F8232000BF41
S315000024B00C37BD465DF8047B704700BF00E100E0C5
S315000024C080B483B000AF0346FB7197F90730002B49
S315000024D00CDBFB7903F01F02074997F907305B090C
S315000024E0012000FA02F2603341F8232000BF0C37C6
S315000024F0BD465DF8047B704700E100E080B483B020
S3150000250000AF03463960FB7197F90730002B0ADBF1
S315000025103B68DAB20C4997F907301201D2B20B4484
S3150000252083F800230AE03B68DAB20849FB7903F036
S315000025300F03043B1201D2B20B441A7600BF0C37CC
S31500002540BD465DF8047B704700E100E000ED00E069
S3150000255080B584B000AF786001212020FEF754FDDD
S3150000256001212120FEF750FD1A4B01225A607B689B
S315000025701B781B06FB60174AFB6893607B685B78D9
S315000025801B047A6892781A43124B9A61114BFF2208
S315000025909A62104B00229A630E4B00221A640D4B6E
S315000025A04FF000425A650B4B03F5015310334FF0C1
S315000025B0FF321A601520FFF783FF7B68DB78194628
S315000025C01520FFF79BFF1520FFF75CFF00BF1037B4
S315000025D0BD4680BD0000044080B485B000AF786081
S315000025E0114B03F5835304334FF480321A600F4BBB
S315000025F05B69FB60FB689B09DBB203F03F03DAB261
S315000026007B689A70FB68DBB203F03F03DAB27B6843
S315000026105A70FB681B0BDAB27B681A7000BF14375E
S31500002620BD465DF8047B70470080004000C007404F
S3150000263080B483B000AF78600B46FB707B680E4AAF
S31500002640934204D10D4AFB78C2F88C3107E07B68CF
S315000026500B4A934203D1094AFB78C2F89C317B6846
S31500002660DB6D43F080027B68DA6500BF0C37BD4640
S315000026705DF8047B704700BF00C005400080034042
S315000026800000064080B586B000AFF860B9607A6099
S31500002690FB70BB68002B04D14FF42070FEF7EAFCF8
S315000026A0B860FB78202B0CD0202B02DC002B05D049
S315000026B03AE0402B08D0602B09D035E010237B612F
S315000026C008E008237B6105E006237B6102E0042322
S315000026D07B6100BFBB685A017B69796801FB03F324
S315000026E05B0813443B617B697A6802FB03F33A6932
S315000026F0B2FBF3F33B613B69203B3B613B69DB008B
S315000027003B613A690A4B13403B61FB689B6823F0C7
S315000027106002FB689A60FB689A68FB781A43FB685C
S315000027209A60FB683A69DA611837BD4680BD00BF1A
S31500002730F8FF7F0080B485B000AF78600B46FB7071
S315000027407B68154A934202D07B68144A934200BFC5
S315000027507B6803F58053043301221A60FB78DB4360
S31500002760FB60FB6803F00503FB60FB685A007B68AF
S315000027705A61FA787B685A61FB78002B05D17B6831
S3150000278003F50053043301221A6000BF1437BD4617
S315000027905DF8047B704700BF00C00540000006409E
S315000027A080B582B000AF786039607B68504A93424A
S315000027B002D07B684F4A934200BF786800F09EF8CB
S315000027C07B6803F58053043301221A603B689B7CC7
S315000027D0002B05D07B689B6843F080427B689A603B
S315000027E03B68DB7C002B05D03B681B7D194678686F
S315000027F0FFF71EFF3B685B7B1A463B681B8A134349
S315000028003A68D2891A437B68DA603B6859683B6844
S315000028109A683B681B7B7868FFF734FF3B685B7DF3
S31500002820002B05D07B689B6843F480327B689A60F6
S315000028303B689B7D1B0703F0E0423B68DB7D1B0585
S3150000284003F4E0031A437B689A653B681B7E022B00
S3150000285003D03B681B7E032B16D1274A7B6824498D
S315000028608B4208D07B6823498B4201D1012303E0C8
S315000028704FF0FF3300E000235B01134403F5B05330
S315000028801C3302221A6015E01B4A7B6818498B42EA
S3150000289008D07B6817498B4201D1012303E04FF032
S315000028A0FF3300E000235B01134403F518531C3388
S315000028B002221A603B681B7E012B03D03B681B7EFD
S315000028C0032B06D17B6803F582531C3304221A605E
S315000028D005E07B6803F501531C3304221A603B684C
S315000028E01B781A467B685A6100BF0837BD4680BD13
S315000028F000C005400000064000C0034080B483B01D
S3150000290000AF78607B68274A934202D07B68264AEC
S31500002910934200BF7B6803F58053043301221A609B
S315000029207B6840F6AA625A617B6800229A607B68DF
S315000029300022DA657B6841F20502DA607B680022D4
S315000029401A617B680022DA617B680022DA647B68A0
S3150000295003F501530833154A1A607B6800229A650D
S315000029607B68104A934203D07B680F4A934202D198
S315000029707B6800221A657B680A4A934203D07B680B
S31500002980094A934202D17B6800225A657B6803F5A7
S315000029900053043301221A6000BF0C37BD465DF8B0
S315000029A0047B704700C0054000000640FFFF0100A1
S315000029B080B483B000AF786000BF7B689B6903F08A
S315000029C08003002BF9D07B685B6ADBB218460C37B4
S315000029D0BD465DF8047B704780B483B000AF786075
S315000029E00B46FB7000BF7B689B6903F04003002B1E
S315000029F0F9D0FA787B68DA6300BF0C37BD465DF81C
S31500002A00047B704780B400AF074B084A9A60064BB8
S31500002A10D3F88830044A43F47003C2F8883000BF04
S31500002A20BD465DF8047B704700ED00E00000000045
S31500002A3080B582B000AF00237B600E4B1B6F03F0A6
S31500002A400703022B04D0032B06D0012B08D00AE083
S31500002A5000F04AF8786007E0074B1B687B6003E0EC
S31500002A60064B7B6000E0FEE77B6818460837BD46EC
S31500002A7080BD00BF0080004004000020002D310111
S31500002A8080B582B000AFFFF7D3FF7860094B1B6FAC
S31500002A901B0B03F00F033B603B6801337A68B2FB04
S31500002AA0F3F37B60044A7B6813607B68184608373B
S31500002AB0BD4680BD008000401000002080B400AFFD
S31500002AC0024B1846BD465DF8047B704700B4C4044B
S31500002AD080B400AF034B1B681846BD465DF8047B07
S31500002AE0704700BF0400002080B400AF034B1B6892
S31500002AF01846BD465DF8047B704700BF0C000020F9
S31500002B0080B400AF00231846BD465DF8047B7047CD
S31500002B1080B400AF024B1846BD465DF8047B704793
S31500002B20002D310180B400AF4FF400431846BD4676
S31500002B305DF8047B704780B400AF4FF47A73184693
S31500002B40BD465DF8047B704780B400AF034B1B683D
S31500002B501846BD465DF8047B704700BF080000209C
S31500002B6080B400AF044B1B681B0CDBB21846BD4695
S31500002B705DF8047B704700BF0080E00F80B582B02F
S31500002B8000AFFFF7EDFF0346012B1CD1104B5B6E28
S31500002B9003F48023002B0CBF01230023FB710C4B95
S31500002BA003F5835304334FF480221A60094B042241
S31500002BB01A60FB79002B06D0054B03F5015324332D
S31500002BC04FF480221A6000BF0837BD4680BD00BFA3
S31500002BD0008000402020014080B483B000AF03464F
S31500002BE0FB710B46BB7113467B7100BF0C37BD46AC
S31500002BF05DF8047B704780B500AFFFF7BFFF00F0BC
S31500002C0007F800F020F800F017F800BF80BD0000BC
S31500002C1080B582B000AF074A3B4692E8030083E8DE
S31500002C2003003B461846FFF7C1F900BF0837BD460B
S31500002C3080BD00BF3494000080B400AF00BFBD4625
S31500002C405DF8047B704780B500AF012201210320A7
S31500002C50FFF7C2FF03218020FEF796FC09214FF4FF
S31500002C60C060FEF791FC09214FF4F060FEF78CFC82
S31500002C7009213E20FEF788FC09212D20FEF784FC61
S31500002C8000BF80BD80B500AF01213A20FEF7BCF938
S31500002C9000F02EF800F03EFA00BF80BD80B483B08D
S31500002CA000AF03463960FB71FB79002B07D0FB7937
S31500002CB0012B04D0FB79022B01D0FB79032B0122D7
S31500002CC03B6802FA03F30949FA79184613465B0092
S31500002CD013441B010B4403F580531033186000BFE7
S31500002CE00C37BD465DF8047B704700BF00C003404B
S31500002CF080B582B000AF01213A20FEF785F90023A6
S31500002D007B600BE0094A7B6812F833000021002340
S31500002D100422FFF731FB7B6801337B607B68002B65
S31500002D20F0D0002318460837BD4680BD3C9400000D
S31500002D3080B582B000AF78607B68002B0DDB7B68C6
S31500002D40002B0AD1084A7B6812F83330002211465C
S31500002D501846FFF7A3FF002301E04FF0FF331846A4
S31500002D600837BD4680BD00BF3C94000080B500AF6B
S31500002D7000F010F800BF80BD80B500AF044B012203
S31500002D809A7003494FF0FF3001F016F800BF80BD7E
S31500002D90B019002080B588B000AFFFF72CFFFFF711
S31500002DA071FF07F1080300221A605A609A60DA6020
S31500002DB01A6102233B72184BFB6002237B740423C7
S31500002DC0BB740223FB7505233B7607F108031946FE
S31500002DD04FF0FF3001F0B6F9FFF7CEFF00F020F814
S31500002DE0FDF75AFAF861FB690C4A934202D0FB6977
S31500002DF0002B0DD13B1D00211846FDF7FBF9F861AC
S31500002E00FB69002B04D17B68DBB2184600F0C3FDDA
S31500002E1000BF2037BD4680BD006A1800038000F061
S31500002E2080B500AF00F002F800BF80BD80B400AFEF
S31500002E3000BFBD465DF8047B704780B483B000AF29
S31500002E407860002318460C37BD465DF8047B704752
S31500002E5080B483B000AF7860FEE780B483B000AF83
S31500002E60786039603B684FF400525A600023184678
S31500002E700C37BD465DF8047B704780B483B000AF65
S31500002E807860012318460C37BD465DF8047B704711
S31500002E9080B485B000AFF860B9607A600023184648
S31500002EA01437BD465DF8047B704780B586B000AF29
S31500002EB0F860B9607A6000237B610FE000F08CF95E
S31500002EC038613B69B3F1FF3F0ED0BB685A1CBA604C
S31500002ED03A69D2B21A707B6901337B617B685A1EEC
S31500002EE07A60002BEAD100E000BF7B69002B02DC90
S31500002EF04FF0FF3300E07B6918461837BD4680BDAA
S31500002F0080B485B000AF78600B4B1B68002B02D1F4
S31500002F10094B0A4A1A60084B1B68FB60064B1A6885
S31500002F207B681344044A1360FB6818461437BD4691
S31500002F305DF8047B704700BFCC040020F019002028
S31500002F4080B586B000AFF860B9607A6000237B6117
S31500002F5009E0BB685A1CBA601B78184600F07CF979
S31500002F607B6901337B617A697B689A42F1DB7B6816
S31500002F7018461837BD4680BD80B483B000AF0346FF
S31500002F80FB7197F90730002B0BDBFB7903F01F026F
S31500002F90074997F907305B09012000FA02F241F868
S31500002FA0232000BF0C37BD465DF8047B704700BF89
S31500002FB000E100E080B483B000AF0346FB7197F9EF
S31500002FC00730002B0CDBFB7903F01F02074997F94A
S31500002FD007305B09012000FA02F2603341F8232032
S31500002FE000BF0C37BD465DF8047B704700E100E08A
S31500002FF080B483B000AF786039607B6803F5015315
S3150000300008333A681A6000BF0C37BD465DF8047B8A
S31500003010704780B483B000AF786039607B68DA6C43
S315000030203B68DB431A407B68DA6400BF0C37BD4659
S315000030305DF8047B704780B483B000AF7860396078
S315000030407B68DA6C3B681A437B68DA6400BF0C372E
S31500003050BD465DF8047B704780B500AF0421024889
S31500003060FFF7D7FF00BF80BD0000064080B500AF68
S3150000307004210248FFF7DFFF00BF80BD00000640C5
S3150000308098B500AF144B9B6903F08003002B20D04A
S31500003090124B1B68072B1ADC114B1C680E48FFF7F6
S315000030A087FC03461A460F4B1A550D4B1B68013316
S315000030B00B4A1360094B1B680133084A1360084B1F
S315000030C01B68082B05D1064B00221A6001E0FFF7AA
S315000030D0C3FF00BF98BD00BF00000640D804002013
S315000030E0D4040020DC04002080B483B000AF7860F4
S315000030F07B68002B03D0064B01221A7002E0044BBA
S3150000310000221A7000BF0C37BD465DF8047B70477D
S31500003110E4040020B0B588B000AF01213A20FDF7E5
S3150000312073FF0123042205210020FFF725F901235F
S31500003130022206210020FFF71FF9224BFB61224BDA
S315000031403C461D460FCD0FC495E8070084E80700EE
S3150000315001212920FDF758FF00233B703B46194605
S31500003160F869FFF71DFB194B1422C3F83C26174BD1
S315000031704FF4A022C3F85426144B4FF4C022C3F8D0
S315000031804C2604210F48FFF733FF0F20FFF712FFED
S3150000319004210C48FFF74FFF0F20FFF7EDFE052136
S315000031A0F869FFF7C7FA0A4B1B68986800230222E2
S315000031B0002105F0A5F9074B01221A7000BF203740
S315000031C0BD46B0BD000006404494000000C0034068
S315000031D010020020E504002080B582B000AF4FF059
S315000031E0FF337B60184B1B7883F00103DBB2002BA7
S315000031F001D0FFF78FFFFEF7EBFD3860134B1B681E
S31500003200002B18DD124B1B68124AD35CDBB27B60C5
S315000032100F4B1B6801330E4A13600D4B1B68082BBE
S3150000322002D10B4B00221A60084B1B68013B074A70
S315000032301360FFF71BFF3868FEF7DAFD7B68184658
S315000032400837BD4680BD00BFE5040020D804002035
S31500003250D0040020DC04002080B582B000AF034615
S31500003260FB710F4B1B7883F00103DBB2002B01D0FF
S31500003270FFF750FF0B4B1B78002B06D0FB790A2B70
S3150000328003D10D210848FFF7A7FBFB79194606482D
S31500003290FFF7A2FBFB7918460837BD4680BD00BF85
S315000032A0E5040020E40400200000064080B400AFDE
S315000032B0044B1B681B0CDBB21846BD465DF8047B4D
S315000032C0704700BF0080E00F80B584B002AF396060
S315000032D011461A460346FB710B46BB7113467B71BA
S315000032E0BA79F8793B7C01937B79009313463A6867
S315000032F03968FEF7C9FF00BF0837BD4680BD00002C
S3150000330080B582B000AFFFF7D1FF0346012B1CD179
S31500003310104B5B6E03F48023002B0CBF01230023AC
S31500003320FB710C4B03F5835304334FF480221A6070
S31500003330094B04221A60FB79002B06D0054B03F5D6
S31500003340015324334FF480221A6000BF0837BD466C
S3150000335080BD00BF008000402020014080B582B0C3
S3150000336000AF0346FB71FB7983F00103DBB2002B50
S3150000337003D00120FFF7DCFCFEE700BF0837BD469F
S3150000338080BD000080B586B002AFFFF7EFFC254A8E
S315000033903B1D92E8030083E803000120FFF7A4FE2B
S315000033A0FDF7A0F80023FB6034E0FB68DB0007F1C3
S315000033B01002134413F80C0CFB68DB0007F1100233
S315000033C0134453F8081C01230222FEF7D5FFFB68BD
S315000033D0DB0007F11002134453F8083CDBB2124934
S315000033E01846FDF78FF8FB68DB0007F1100213445F
S315000033F013F80C0CFB68DB0007F11002134453F8BA
S31500003400081C0123009301230022FFF75DFFFB68E0
S315000034100133FB60FB68002BC7D000BF1037BD46E9
S3150000342080BD00BF60940000B538000000000000B9
S3150000343090B587B002AF00215F4800F075FA0246EA
S315000034405E4B1A605D4B1B68002B14BF01230023E3
S31500003450DBB21846FFF782FF584B1B684FF001118D
S31500003460184600F00CFE554B1868554B1B68002299
S31500003470194600F051FC534A07F1080392E803008D
S315000034801860043319804D4B1B6807F1080211467A
S31500003490184600F04DFD0346FB73FB7B002B0CBF6B
S315000034A001230023DBB21846FFF758FF434B1B6886
S315000034B00121184600F07AFD404B1B681E21184674
S315000034C000F04FFD404B1B88BB803C4B1B683A1DF0
S315000034D01146184600F062FC384B1B683A1D11462F
S315000034E0184600F043FC354B196831A4D4E9003482
S315000034F0CDE900344FF0FF324FF0FF33084600F0BD
S3150000350051FC2E4B18684FF4807300222F4900F0AF
S31500003510C3FD2A4B1B682E49184600F0B9FD034629
S31500003520FB73FB7B002B0CBF01230023DBB2184689
S31500003530FFF714FF4FF480537B80204B1B68BA1CA7
S315000035402449184600F0ACFD0346FB73FB7B002BB9
S315000035500CBF01230023DBB21846FFF7FFFE7B8872
S31500003560B3F5805F0CBF01230023DBB21846FFF7DB
S31500003570F5FE124B1B68E621184600F0ADFD0F4B19
S315000035801B6840F66661184600F0AAFD0B4B1968E9
S31500003590114B4FF00004CDE900344FF0FF324FF0ED
S315000035A0FF33084600F0FEFB00BF1437BD4690BD52
S315000035B008CD40958800000014000020B8190020AE
S315000035C0CC0100206894000070940000E8140020EC
S315000035D080940000E80400200400200080B500AFBD
S315000035E04FF4807200210C4804F069FF4FF48052BA
S315000035F000210A4804F063FF094B02221A70094BA6
S3150000360000221A80084B1B6801220021184600F090
S315000036106FFD00BF80BD00BFE8140020E804002055
S31500003620E8150020EA150020B819002080B584B0FE
S3150000363000AF6A4B02221A70694B00221A804FF4BF
S3150000364080720021674804F03AFF4FF4805200214F
S31500003650654804F034FFFFF753FEFFF7E9FEFFF776
S3150000366091FE624B1B6801220121184600F076F993
S31500003670FFF7B2FD0346FB7297F90B30742B20D18E
S31500003680564B1B78DBB2022B0CBF01230023DBB2A7
S315000036901846FFF763FE514B00221A70534B1B6806
S315000036A000220021184600F061F903467B727B7AFE
S315000036B0002B0CBF01230023DBB21846FFF74EFE9A
S315000036C049E097F90B30692B15D1444B1B78DBB2D7
S315000036D0002B0CBF01230023DBB21846FFF73EFE8A
S315000036E03E4B02221A70414B1B68012201211846EB
S315000036F000F034F92FE097F90B30722B20D1374BBD
S315000037001B78DBB2022B0CBF01230023DBB2184669
S31500003710FFF724FE314B01221A70344B1B6800223E
S315000037200021184600F025F90346BB72BB7A002B30
S315000037300CBF01230023DBB21846FFF70FFE0AE099
S3150000374097F90B30B3F1FF3F0CBF01230023DBB227
S315000037501846FFF703FE224B1B889BB2002B87D02F
S315000037601E4B1B78DBB2022B0CBF01230023DBB2FE
S315000037701846FFF7F3FD1A4B1B889BB29B089BB2BA
S3150000378019461B4804F0A4FE0023FB6017E0FB6803
S315000037905B00154A13441B88FB80FB6801335B0002
S315000037A0114A13441B88BB80B7F90630B7F90420C9
S315000037B01946104804F08CFEFB680233FB60084B88
S315000037C01B889BB25B089BB21A46FB689342DEDB02
S315000037D0034B00221A80FFF701FF49E7E815002096
S315000037E0EA150020E8140020E8040020B81900209B
S315000037F074940000789400002DE9904884B000AFDE
S31500003800F860C7E90023D7E900344FF004014FF010
S31500003810000203EA010B04EA020C5BEA0C031ED069
S31500003820224B1B78DBB2012B0CBF01230023DBB23A
S315000038301846FFF793FDF86800F056FC03461A4653
S315000038401B4B1A8001220121F86800F087F801223B
S315000038500021F86800F04CFC144B02221A70D7E9DC
S3150000386000344CF608514FF0000203EA010B04EA5B
S31500003870020C5BEA0C0302D00020FFF76FFDD7E9CC
S3150000388000344FF000014FF0800203EA010B04EA16
S31500003890020C5BEA0C0304D000220021F86800F059
S315000038A06CF800BF1037BD46BDE89088E8150020CB
S315000038B0EA15002080B483B000AF0346FB7100BF59
S315000038C00C37BD465DF8047B704780B483B000AF0B
S315000038D07860002318460C37BD465DF8047B7047B8
S315000038E080B483B000AF7860396000BF0C37BD4646
S315000038F05DF8047B70470000064880470649074A82
S31500003900074B9A42BEBF51F8040B42F8040BF8E786
S31500003910FCF736FC052A000058C70000000000200E
S315000039207C020020FEE700BF70B50E46044678B163
S31500003930084D2B7863B9084B186000F03DF8314606
S31500003940204600F02AF8031C18BF01232B7070BD17
S315000039500020FCE7F0150020EC1500200846114673
S3150000396000F03EB800B10C3000F0C5BA0023FFF7F6
S31500003970F9BF00B10C3000F022BA00B10C3000F0F3
S315000039804EBB7047431E012B03D9031F58425841B3
S3150000399070470120704700F04FBC38B504460D460D
S315000039A00021FFF79DFF2946204601F09BF90028DC
S315000039B00CBF2046002038BD10B5044600F08EFC32
S315000039C044B1054AD4F88030002B08BF1346034A99
S315000039D0136010BD636FFFDE83390000D401002041
S315000039E010B50C4600F086FC1CB100F0E1FC012885
S315000039F0FBD110BD2DE9F04FDFF8709185B004467C
S31500003A008B4616468DF80F3001F0D8FAB9F80050FB
S31500003A1001F0F6FA00283CD1524F002E3ED0386015
S31500003A2000F0C6FC012865D1DFF844A1A26EDAF8E1
S31500003A300030E06E002B65D0934266D01D68116899
S31500003A4002680DB18D426FD0204601F0A3F8012225
S31500003A5000230546CDE90123D4F87C80B8F1000F98
S31500003A6072D000220DF10F0311462046C0474DBB10
S31500003A70D4E91A23CAF800203B60E6B9029B002B62
S31500003A8059D1019B002B56D10025284605B0BDE82B
S31500003A90F08F0023334F3B6001F0AAFAE36E3A68D9
S31500003AA09342BDD1002BBBD05D45EDD000F080FC2C
S31500003AB00128B9D01EE03146C9F800B0204600F012
S31500003AC0BFFE05460EB9019B83B1B5FA85F03321D9
S31500003AD0400900F029FB9DF80F10204601F066F81A
S31500003AE0214BE16E1B68A4F10C009847284605B0EF
S31500003AF0BDE8F08F012000F0FDFB00F059FC012825
S31500003B00FBD191E7116802689EE73968002995D0D4
S31500003B10814293D1B5EB0B024FF0000318BF01228F
S31500003B20019302921D4697E7396811B109689142DF
S31500003B3005D0596888E7C9F800B00199BEE70123A6
S31500003B400025CDE9013587E7217994F8B8309DF84D
S31500003B500F20994228BF1946204600F0EEFD002DA1
S31500003B60B0D185E7FC150020D4010020F415002013
S31500003B70F81500202DE9F04F074683B00E46FEF7F4
S31500003B8009F9FB6E814613B13B89B34248D0BB6E3F
S31500003B90002B53D09C68002C50D0D96800294DD0FA
S31500003BA0D7F87CA0BAF1000F50D04FF00008A7F16B
S31500003BB00C0B4046454600E09C6805EB450204EBCD
S31500003BC0C204E2890135B24215D8228AB24212D322
S31500003BD0B4F91220B7F92A110193914217DD97F82B
S31500003BE0AC10584604F076F83A79804682420ED9EF
S31500003BF02046019BD9688D42DED338B90124484658
S31500003C00FEF7D8F8204603B0BDE8F08F044600233F
S31500003C10224619463846D0473E81FC6687F8B8806A
S31500003C20002331461A463846FFF7E4FE0446484666
S31500003C30FEF7C0F8204603B0BDE8F08F03244846DF
S31500003C40FEF7B8F8204603B0BDE8F08FD0465046E0
S31500003C50554647F6FF7BA7F10C0A0EE097F8AC1025
S31500003C60504604F037F83A7980468242D4D9204645
S31500003C70019BD9688D4213D29C6805EB450204EB83
S31500003C80C204E2890135B242F4D8228AB242F1D3A3
S31500003C90B4F9122001935A45E0D14FF0FF08BBE773
S31500003CA00028ABD00446B7E7F8B50D1C18BF0125B0
S31500003CB00E46074600241F21284600F035FA3046F6
S31500003CC001F056FC1F21284687F8C840C7E91A6448
S31500003CD000F02AFA4FF6FF721820F168E3B28B4221
S31500003CE00BD3154600230A4A29461360094A38466B
S31500003CF01360FFF73FFF2846F8BDB56800FB035386
S31500003D00DD89954202D2002DECD02A460134E5E742
S31500003D10F8150020FC15002000B10C30054B002AD8
S31500003D2008BF1A46044B1A6009B1FFF7BDBF084623
S31500003D30704700BF83390000D40100200089704716
S31500003D400A7838B505461046FFF71CFE60B14C7878
S31500003D502046FFF717FE38B12243530704D42846FE
S31500003D60BDE8384000F06EBC012038BD00B10C3013
S31500003D70FFF7E6BF10B504460878FFF703FE58B113
S31500003D804A781046FFF7FEFD30B1042A04D02046DB
S31500003D90BDE8104000F07EBC012010BD00B10C3023
S31500003DA0FFF7E8BF30B4DDE9024500B10C30CDE9DC
S31500003DB0024530BC00F042BA084601F085B938B574
S31500003DC004460D46FFF7D6FE28B929462046BDE82B
S31500003DD0384001F00DB838BDF0B587B004460F463F
S31500003DE01646ADF806101D46E3B190F8B730BBB9DC
S31500003DF000F1AC0393E8030094F8B5300490C0B228
S31500003E009842ADF8141005D006A901F8083D2046E1
S31500003E1000F06EFC2A7894F8B610204600F08DFC6F
S31500003E20002028E0A0F10C053ABB00F1AC0393E8B2
S31500003E30030004AA0490ADF81410A4F82A71E36EE6
S31500003E400DF10601284600F081F9A0B99DF8101081
S31500003E502846BDF9062003F03DFF04A90546204685
S31500003E6000F046FC38B92946204600F085FCBDF82E
S31500003E700630A4F82C3107B0F0BDB2F91230B0F913
S31500003E802A2106A99342A8BF1346284621F80A3DCF
S31500003E9004AA334600F05AF984F8B700B6F912209E
S31500003EA0BDF90E309A42A8BF1A469DF81030ADF8FB
S31500003EB00E20032B04BF012384F8B73094F8B730E3
S31500003EC06BB1B4F92C31934209DD04F1AC0393E8EC
S31500003ED0030000230490ADF8141084F8B7309DF861
S31500003EE01010A4F82C2184F8B510284603F0F2FE31
S31500003EF084F8B60094E7022A70B515461E4615D812
S31500003F00FFF738FE044650B901210846FFF768FD61
S31500003F10204601F02BFB25B9304600F078FC204600
S31500003F2070BD3146284600F07DFCF8E70124F6E72F
S31500003F3038B5044648880D4601F018FB4CB1D4F854
S31500003F40883043B9294604F10C00BDE8384000F03A
S31500003F50CFBBE36FFFDE022038BD00B10C3000F0AE
S31500003F604DBCF7B5044600200F4601F0FFFAD4B168
S31500003F70D4F8885004F10C067DB969462046FFF74F
S31500003F80ECFF9DF800103A46204603F0A3FE0146DA
S31500003F90304600F0F1FB03B0F0BD002339461A4667
S31500003FA03046A847F7E7E36FFFDE000000B10C30AC
S31500003FB00029034B08BF0023C3670020704700BFDA
S31500003FC0D93D000038B504460D46FDF7E3FE002353
S31500003FD0A5616361BDE83840FDF7ECBE38B505461E
S31500003FE00C46FDF7D7FEA9696B690C4023436B614C
S31500003FF0FDF7E0FE00200CB9002138BD8021FCE76A
S3150000400038B505460C46FDF7C5FEA96921406C6921
S3150000401024EA01046C61FDF7CDFE204638BD73B578
S31500004020054614460E4681B94FF0FF330193EAB9AF
S315000040306C6928462146FFF7E3FF224601A9284678
S3150000404000F0DCFA6EB902B070BD0B680193002A6D
S31500004050EED01146FFF7D4FF224601A9284600F00C
S31500004060CDFA0028EFD1019B3360ECE71146FFF74C
S31500004070C7FF224601A9284600F0C0FAE3E708B5C3
S3150000408000B10C3001F00111FFF79CFF002008BDC4
S3150000409000B10C3000F026BD00B10C3000F0D2BCEF
S315000040A000B10C3000F0EBBC4FF4007307B502AA68
S315000040B022F8023D0749FFF7F3FFBDF80630B3F5D6
S315000040C0007F05D1022808BF002003B05DF804FB7D
S315000040D00120FAE70016002000B10C3000F064BCA5
S315000040E000B10C3000F088BC00B10C3000F0A2BC6E
S315000040F038B5154658B100F10C0411B1204600F050
S31500004100D9FC35B12046BDE8384000F025BD04464F
S31500004110F3E738BD024B1960024B1860FEE700BF9B
S31500004120D8010020DC01002008B528B9034B19602E
S31500004130034B1868FFF7EEFF08BD00BFD80100204B
S31500004140EC150020084600F033BE00000323137070
S31500004150104B70B5587950B9B1F90040B3F9006009
S31500004160B3F90250A642187901DCA5420CDAD87AD6
S3150000417058B9B3F90840987AB1F90010B3F9063086
S315000041808B4202DC8C4200DB10701078C31E584252
S31500004190584170BDE0010020024BD868C0F30360AF
S315000041A0704700BF000002A87047000038B16FF0EA
S315000041B0FF02034B10401A60A3F580531860704746
S315000041C024E000A8C2690F4B02F06002402A12D018
S315000041D0602A04D0202A12D10122DA6107E071B1E7
S315000041E00A68012A0BD94A6942F00102DA61802283
S315000041F0054B1A61704740F20112DA61F7E70022B7
S31500004200DA61F4E7484F00B0000002A800F0180396
S31500004210182B084B02D100221A627047010702D5FB
S3150000422001221A627047C206F5D540F201121A62DF
S31500004230704700BF484F00B0032070472DE9F34B8D
S31500004240DDE90A67D0E938890446002588EA0600D0
S3150000425089EA070101EA030C00EA020B8CEA09016C
S315000042608BEA0800C4E9380122F0010006EA0008DA
S3150000427007EA03091946CDE9005549F0800348F0DD
S31500004280004202F023FD2378DB0720D5D4E938234A
S31500004290002003F0800150EA010318D04FF480316A
S315000042A02046FFF79BFE237865F300032370D4E9CD
S315000042B0382302EA000503EA010655EA060306D09A
S315000042C005492A4609683346A4F10C0088470020B0
S315000042D002B0BDE8F08B00BFEC010020034A036882
S315000042E0002B08BF1346024A13607047A94100001D
S315000042F0EC0100202DE9F34103284BD8DFE800F05C
S3150000430046023E42002401262546FDF743FD0746A8
S3150000431002F0B4FE804640B100230022CDE900330E
S3150000432001200023002102F0D1FC2946304602F08C
S31500004330F9FE22462946304602F058FFB8F1000F32
S3150000434016D0164B1B6803B10C33154A126C520279
S3150000435008D4DB6913F0800F4FF4001314BF114A21
S31500004360114A136011490868FFF720FF00230B600C
S31500004370384602B0BDE8F041FDF71CBD012500241A
S315000043802E46C2E7012425462646BEE700242546DA
S315000043902646BAE702B0BDE8F08100BFEC15002062
S315000043A0000002A8205001A8206001A818180020CB
S315000043B008B5FFF7F1FE01380B280DD8DFE800F04D
S315000043C014140614141414080A080808032008BD57
S315000043D00420FCE70520FAE7044B5B6913F0060F9F
S315000043E014BF04200120F2E70220F0E700C001A874
S315000043F010B50246FFF7DCFF012813D1C1F15904BD
S315000044007F2C0EDC9170FDF7C5FC074AE402136AA7
S3150000441004F4FF2423F4FF231C431462FDF7CAFCB3
S31500004420002010BD0220FCE700C000A80138C0B281
S3150000443002284FF060518EBF00220D4B53F820200A
S315000044400C4B00201960A3F580531A604FF400123C
S315000044504FF080511A60084A936F23F0060343F029
S3150000446004039367054B19600423C2F88C30704728
S3150000447020980000206001A8004000A84C1002A867
S31500004480114B1B7813B10622104B1A600022104BF9
S31500004490C3F88C204FF0805203F5F0334C331A608A
S315000044A00C4B1B6C13F4800F0B4B08D1C26912F036
S315000044B0800F4FF4001216BF08491A600A604FF0C9
S315000044C0605200201A60704704180020786000A827
S315000044D0004000A8000002A8206001A8205001A802
S315000044E070B51546C269064682EA05030B4053407D
S315000044F0C36108070C4606D5082315F0080F14BF3C
S31500004500334A344A1360E10706D5012315F0010F3B
S3150000451014BF2F4A2F4A136062070CD502F0EAFD3A
S315000045204FF4007315F0040F14BF2B4A2B4A136087
S3150000453004222B4B1A60A30706D5022315F0020F9F
S3150000454014BF234A234A1360E00606D515F0100F60
S3150000455014BF00221B22234B5A6521061ED52A06AC
S3150000456025D54FF40012204B1A60012203F587531C
S315000045701A60FDF70FFC0146FFF70EFE032806D171
S315000045801A4AD36823F0F00343F0E003D36040F205
S315000045900122144B0846DA62FDF70CFC14F0600F9A
S315000045A003D0316F3046FFF70DFE002070BD104B73
S315000045B01B6C5B02F2D44FF4001196F888300D4A5A
S315000045C01160002BEAD001220B4B1A60E6E700BF10
S315000045D04C5000A84C6000A8245001A8246001A8F3
S315000045E0402002A8004000A8205001A8484F00B073
S315000045F0000002A8206001A8005101A873B50C466E
S31500004600D1070546164601D502F02AF9F2030FD561
S3150000461021684B1C08D101A9284600F02DFD08B9D8
S31500004620019B236002B070BD284600F011FDF9E73A
S3150000463001A9284600F0F2FC08B9019B236000207E
S31500004640F0E70000F8B5114D0F784C782E68FDF7AD
S31500004650A1FB02460E49FFF79FFD0B2808D00C2848
S3150000466001D0092807D11046FDF7A4FB0220F8BDAA
S315000046700B6CDB03EFD42406B3B244EA07441C43B5
S3150000468010462C60FDF796FB0020F0E7F44E00B0D4
S31500004690000002A8F8B5144E0C784F783568FDF77F
S315000046A079FB02461149FFF777FD033808280FD832
S315000046B0DFE800F0050E05050E0E0E0E0A00104688
S315000046C0FDF778FB0220F8BDD1F84431002BEAD182
S315000046D02B0C1B041C4344EA072410463460FDF7E8
S315000046E069FB0020EFE700BFF44E00B0000002A80F
S315000046F070B5044600F1AC060868C4F8AC008B88B7
S315000047000846A4F8B0308B88C4F83C31FF236371A7
S3150000471000F056FF054670B9304600F037FF0546F3
S3150000472048B9204600F0CAFF0121A4F8B00004F100
S31500004730800002F02FF9284670BD38B5054690F87E
S31500004740AC000C46032813D0FF2913D000F0A8FFB5
S31500004750A04204D895F8AC0000F0A2FF04466C71A4
S31500004760204601F0AFF8A0F1FF035842584138BD8A
S315000047700220FCE70120FAE738B590F8AC30044691
S31500004780032B37D0C56E01718DB3C36F1BB990F87B
S31500004790B8308B4205D3B4F92A21B5F912309A42C2
S315000047A011DD002294F8B8102046FFF7C6FF054633
S315000047B0D8B9E0662046FFF7C1FA01462046BDE8B3
S315000047C03840FFF7D7B900222046FFF7B6FF054667
S315000047D058B9094B1B78012B07D8204600F06EFF0D
S315000047E0012104F1800002F0D5F8284638BDFF23E8
S315000047F04371FAE70225F8E7FA0100200346D0F8EC
S31500004800AC000860B3F8B03000208B80704710B55C
S31500004810044601F0A3FD2046FFF7F8FCBDE8104072
S3150000482001F0C2BD38B50D46044601F097FD284695
S31500004830FFF7ECFC2046BDE8384001F0E7BD00007C
S315000048402DE93048436A86B0012B6ED004464E49A6
S3150000485001F0E4FB01230022E56E84F8B430A98957
S31500004860238920675B1A9BB2D5E9011505FB031165
S31500004870464DC4F8BC102D68A4F8C430A842C4F84C
S31500004880C02017D058B103684BB103693BB1996892
S31500004890D3E90023C4F88C10C4E9202304E00023E4
S315000048A0C4E92033C4F88C3001462046FFF78AFC61
S315000048B0D4E92F1201AB204601F00EFE00282FD1BD
S315000048C0334AFFF769FC01380B28FAD9536913F00C
S315000048D0060FF6D12F4A3049136CDD01FCD40B6C60
S315000048E0D807F9D401A904F1BC0001F069FF054617
S315000048F0B0B9B4F8C420294B29491A642378E26E6A
S3150000490060F3000323700B68526911685A1C11D0BA
S31500004910481C1ED08B1C04D0204600F099FB00E0FA
S315000049200225284606B0BDE830880025284606B090
S31500004930BDE830884A1CEDD1D4E93823002003F0C5
S31500004940800150EA010309D1237843F00103237063
S31500004950E7E71946204600F07BFBEDE74FF4803190
S315000049602046FFF73BFBD4E9382302EA000B03EAB3
S31500004970010C5BEA0C03D4D00A495A466346A4F1FB
S315000049800C0009688847CCE7FC4F00B00C180020E3
S3150000499000C001A8000002A800C002A8008001A86B
S315000049A008020020EC01002070B54FF6FF76114C8E
S315000049B0002908BF31462368254603F007039A1DE0
S315000049C0012393409BB2994209D9B14208D140F6DE
S315000049D0FF7363620B46A0F82031184670BD0B4684
S315000049E0696A5A1E21F47F6121F00F0192B20A43CF
S315000049F06A62F0E70C0000AA10B50D4C236803F0BC
S31500004A0007039A1D012393409BB2994225BF4FF697
S31500004A10FF7140F6FF73636A63623FBF23F47F63EF
S31500004A2023F00F030B436362A0F82211084610BD62
S31500004A304C0000AA024B186AC0F30C00704700BF76
S31500004A404C0000AA0846114610F0030210B514D116
S31500004A50B3FA83F3192B05D0C3F11902D2B2062A91
S31500004A6028BF06220124931D9C40A4B2A14228BF60
S31500004A70214600F087FB204610BD0124FBE70846CF
S31500004A8011F0030110B512D11388B3FA83F3192B71
S31500004A9005D0C3F11901C9B2062928BF0621012391
S31500004AA08C1DA340138000F08BFB002010BD01205D
S31500004AB0FCE7000001214FF02A43084AD3F81831D9
S31500004AC091624FF4005102F5005224325B071160E7
S31500004AD042BF0422024B1A60704700BF0C0000AAB6
S31500004AE0181100AA38B54B7805460C46DBB9FFF716
S31500004AF0C7FCA378DBB940F6FF72144B5A62E37821
S31500004B00CBB940F6FF72124B5A62602203F17E4324
S31500004B1003F5A0431A60402203F5E73303F5FA7361
S31500004B201A60002038BD1846FFF780FCE1E72846EA
S31500004B30FFF7C0FFE3E76022064B1A60402203F549
S31500004B40D73303F5FA731A60EBE700BF0C0000AA2F
S31500004B504C0000AA4C6000A838B54FF02A434FF429
S31500004B6080640020D3F8185103F5045318331C60F1
S31500004B70064B186002F00CFB4FF40052044B1A600F
S31500004B806A0544BFA3F658731C6038BD0818002098
S31500004B90702000AA10B514460846012101F030FB2A
S31500004BA02046012101F02CFB002010BD4FF480624D
S31500004BB04FF6FF7CF8B5374B374E056F1A60D6F8BF
S31500004BC00431364AC3F381231370D6F80831868937
S31500004BD0C3F38123664504460F46537004D0304B19
S31500004BE01B680BB1314698472E4E3368AB4248D00E
S31500004BF02D4B1B6833B1002D45D0296801B1A9683A
S31500004C0020469847236F13B11A68022A17D8A4F1D1
S31500004C100C00FEF75AFE01F02FFE0725204600F095
S31500004C204DFD47B3214B93F84720A2B90620012238
S31500004C30246F1F491F4B346008601A70F8BD5A6A0A
S31500004C40C2F307200028E6D01B6AD2B202FB03F2A9
S31500004C50B2FBF0F0DFE7104A93F84430D2F80C01CB
S31500004C60C0B2FF2813D098422CBF002001203C215F
S31500004C70FFF75AFADAE7294604F1800001F08AFEC6
S31500004C80D0E70125CAE7294620469847BAE701201A
S31500004C90EDE700BF4C2002A8004000A81018002035
S31500004CA0141800200C18002000180020F84E00B040
S31500004CB0786000A8041800204FF480130021064AEB
S31500004CC006481360064AC2F8CC1002F50252343286
S31500004CD01360482203F0F3BBB86000A8F84E00B09A
S31500004CE0004000A82DE9F34188460446002857D025
S31500004CF003234FF0641280F8B8304FF6FF73C0E913
S31500004D002822C0F8A820284A4FF0FF378374A0F85D
S31500004D103231038313804FF04023C0F84871078275
S31500004D20D3F8843000F10C0603F0C003802B35D194
S31500004D30304602F0ABF93046FFF7BEFF60221B4B50
S31500004D4004F5AA71DA643046FFF7CCFEA26A05467E
S31500004D5039463046FFF7C4FB0E234FF00042CDE93B
S31500004D60003380231046194601F0B0FF00F072FCB4
S31500004D7085B92046FFF798F9054658B994F90E10FB
S31500004D803046FFF735FB0546B8F1000F02D008B9EB
S31500004D902046C047284602B0BDE8F0810225F9E763
S31500004DA084F8AC00FFDE00BF1C180020004000A8FD
S31500004DB000F01EBE10B50446D0F8A020094B4FF4F3
S31500004DC000611A600278120202F4006202F070FFBB
S31500004DD0237813F0080F4FF4007314BF024A034AF6
S31500004DE0136010BDD04E00B0401002A8402002A8AB
S31500004DF008B5FFF7DFFFFCF7CDFF064A136823F07F
S31500004E0020031360FCF7D6FF0222034B00201A6032
S31500004E1008BD00BFCC4E00B0081002A84FF6FF71C7
S31500004E20084A10B513888B4209D00748074C1B0463
S31500004E300460A0F5805003600020118010BD03209F
S31500004E40FCE700BF1C180020646001A80000FFFFFB
S31500004E504C4B2DE9F3471C6881468A46154604B13A
S31500004E600C348021484801EA0A0300EA0902134388
S31500004E704BD0002309F00042134309D0434B1B6873
S31500004E8003F07F43B3F1007F02BF0222404B1A605A
S31500004E90002309F00102134328D04FF00008002236
S31500004EA0002300210120CDE9008801F00FFF012039
S31500004EB001F00CFA414660810120FEF791FD354B69
S31500004EC01B6C5A0208D4E36913F0800F4FF40013E9
S31500004ED014BF314A314A136031490868FFF766F951
S31500004EE000230B60237843F00403237000220AF0AA
S31500004EF08003134309D001212046FFF76FF82AF0FB
S31500004F00800749EA000947EA010AD4E9382309EA91
S31500004F1002000AEA030102460B46134306460F4601
S31500004F2016D0204BA4F10C0019683B468847002395
S31500004F3006F0080213431EBF00221B4B1A6008230B
S31500004F401A4A1F40164056EA070301D0FFF766FFCC
S31500004F50EB070AD51649174A08680021136811603D
S31500004F600121154A117003B1984715F00E0F06D0AE
S31500004F703B21002002B0BDE8F047FFF7D5B802B0EC
S31500004F80BDE8F087EC15002001000080F44E00B06B
S31500004F90081002A8000002A8205001A8206001A85D
S31500004FA018180020EC010020081800200000C0BFDF
S31500004FB024180020201800201E18002008B50A4BCF
S31500004FC0D3F84C315A1C0ED05B000CD40320FFF7EB
S31500004FD091F94FF08062054B1A60012243F8382C94
S31500004FE0022243F8242C08BD0080E00F4C1002A8D2
S31500004FF04FF40022014B1A60704700BF402002A800
S31500005000024B186CC0F3C040704700BF000002A8F6
S315000050100022014B1A70704728180020C36E4BB14E
S315000050205B693BB11B6800209A1C08BF4FF0FF3339
S315000050300B60704701207047044BC3F8881219B102
S3150000504042F20102C3F82822704700BF004001A8BF
S3150000505038B50C46054600F073F82146FFF7ECFF1D
S3150000506045B1EB6E33B15B6923B1621C08BF6FF0CB
S3150000507001041C60002038BD034BD3F8483201B14F
S315000050800B601946FFF7E4BF0080E00F07B50A4B37
S315000050901A7808236AB9094A136000230193084B5A
S315000050A0186800B10C3001A9FFF7E6FF03B05DF800
S315000050B004FB044AF0E700BFF0010020FC1302A83D
S315000050C0EC150020FC2302A838B5044601F036F89A
S315000050D0E0782179164A40EA0143C2F8DC34E579E2
S315000050E0A37943EA0543C2F8E03423781BB10023D1
S315000050F00422FDF741F963782BB100230422E179FC
S31500005100A079FDF739F9227801236AB1094A1360BB
S315000051106278022352B1074A1360A278064B1A70CE
S31500005120FFF7B4FF002038BD044AF0E7034AF3E76F
S3150000513000C00340D8D40340F0010020D8E4034067
S31500005140014B1878704700BFF00100204FF4803300
S315000051500A4A1360A2F6FC721360094B9A68D1B230
S31500005160C2F3072299659A6504229A6500229A6518
S315000051709A659A659A659A65704700BF142100AAD8
S315000051804C0000AA38B50C4C0D4622606060FCF756
S3150000519001FE4FF02A430022D3F81431E2605B0788
S315000051A05CBF0422054BA56058BF1A60FCF702FEDF
S315000051B00DB10223A36238BD0C0000AA142100AA77
S315000051C040F6FF72034B1860034B196058605A6231
S315000051D0704700BF2C1800204C0000AA032A2FD9C4
S315000051E0436810B4846823445B4203F00303D21A75
S315000051F053B10C78012B846105D04C78022B846165
S315000052001CBF8C7884611944032A0CD9131F23F020
S31500005210030304330B4451F8044B99424463FAD117
S3150000522002F003024AB10B78012A836105D04B785C
S31500005230022A83611CBF8B7883615DF8044B70473B
S3150000524052B10B78012A836106D04B78022A83611A
S3150000525002D08B788361704770470000402938B5CB
S3150000526014464FF001030BD8074D0A46AB620146C0
S315000052702846FFF7B3FF2CB104230020AB6238BDEC
S315000052801846FCE72046FAE7CC0000AA10B5FCF762
S3150000529081FD0122194B1A499A629A661A64596469
S315000052A007215966174B184C198000231749A4F695
S315000052B0FC740B804FF4A021C4F8FC1F2160144934
S315000052C00B60144B1B6C5C0212D54FF48004124B1E
S315000052D012491B680C607BB1996A090608D44FF421
S315000052E0001493F894300E490C600BB10D4B1A6004
S315000052F0BDE81040FCF75EBDDB69FFDE4C0000AA8E
S3150000530030180020B2180020142100AAB01800207E
S31500005310B4180020000002A8EC150020402002A8C6
S31500005320206001A8005101A807220B4BF0211A802A
S3150000533000220A4B1A800A4B1A604FF4005258603A
S315000053405A62084A1160A021A2F58052116001221A
S315000053509A62FFF79BBF00BFB2180020B01800206A
S31500005360CC0000AA486000A82DE9F0410446A8B187
S31500005370FCF710FD454E464B3188032C01F07F02A9
S3150000538002F0780705461F44DFF828C169D1DCF82A
S3150000539000E0BEF1000F04D1FCF70CFD0320BDE8D0
S315000053A0F0812EF00104DCF8000020F00100A0429C
S315000053B05CD10023CCF800302388BC426FEA43431B
S315000053C06FEA5343238047D1324ADFF8ECC0138893
S315000053D0ACF18008CF18083B9BB204F10801F81A1B
S315000053E0614528BF4146082B80B204D9B1F900E0D7
S315000053F0BEF1000F45DB138022882749C2F30C0259
S31500005400A778CA604FF48022C0B23080C8644B6669
S31500005410224B07F007071A604FF02A43D3F81431DE
S31500005420D90301D5FFF792FE042F15D14FF4800161
S315000054301B4B1C4A1B6C1C4B1B6811601BB39A6AE6
S31500005440120609D44FF4001193F89430174A1160EC
S3150000545013B10122164B1A602846FCF7ABFC00205C
S315000054609DE7601E012898BF3C469CE7A21AD31A06
S31500005470084A48BF80331288083A9A429CDC28467C
S315000054808AE70C46A7E7DB69FFDE00BFB0180020FD
S3150000549030180020B21800204C0000AA142100AADF
S315000054A0000002A8402002A8EC150020206001A8F8
S315000054B0005101A8B4180020B01800200F48104A67
S315000054C0038812880F491A44073A02F078020A4400
S315000054D008330D499BB203804B624FF480219078CC
S315000054E00A4B00F007000428196003D10849CB686D
S315000054F01B03FCD4074B1A60704700BFB21800208C
